:020000022000DC
:1060000000000420B5620200DD620200DF620200CF
:10601000E1620200E3620200E562020000000000AB
:10602000000000000000000000000000E762020025
:10603000E962020000000000EB620200ED62020073
:10604000D1A60200EF62020041B00200EF6202003E
:10605000EF620200EF620200D9AA0200EF620200C2
:10606000EF620200EF620200EF620200EF620200E4
:10607000EF62020089B10200EF620200EF620200EB
:10608000EF620200AD6F0200EF620200EF620200F9
:106090004D700200EF62020095DE0200EF62020026
:1060A000EF620200EF620200EF620200EF620200A4
:1060B000EF620200EF62020000000000000000003A
:1060C000EF620200EF620200EF620200EF62020084
:1060D000EF620200EF620200EF620200EF62020074
:1060E000EF620200EF620200658F03000000000013
:1060F00000000000EF62020000000000EF620200FA
:10610000000000000000000000000000000000008F
:10611000000000000000000000000000000000007F
:10612000000000000000000000000000000000006F
:10613000000000000000000000000000000000005F
:10614000000000000000000000000000000000004F
:10615000000000000000000000000000000000003F
:10616000000000000000000000000000000000002F
:10617000000000000000000000000000000000001F
:10618000000000000000000000000000000000000F
:1061900000000000000000000000000000000000FF
:1061A00000000000000000000000000000000000EF
:1061B00000000000000000000000000000000000DF
:1061C00000000000000000000000000000000000CF
:1061D00000000000000000000000000000000000BF
:1061E00000000000000000000000000000000000AF
:1061F000000000000000000000000000000000009F
:1062000010B5054C237833B9044B13B10448AFF3F0
:1062100000800123237010BDC02D0020000000006D
:10622000D423040008B5034B1BB103490348AFF363
:10623000008008BD00000000C42D0020D42304000D
:10624000154B002B08BF134B9D46A3F5803A002148
:106250008B460F461348144A121A16F010FE0F4BC5
:10626000002B00D098470E4B002B00D09847002001
:10627000002104000D000D48002802D00C48AFF3A7
:10628000008016F085FD2000290007F0D1FA16F0F5
:106290006BFD00BF000008000000042000000000AB
:1062A00000000000C02D0020046C00200000000051
:1062B000000000000649074A074B9B1A03DD043B18
:1062C000C858D050FBDC05F079FDFFF7B9FF00009E
:1062D00098250400882B0020C02D0020FEE7FEE753
:1062E000FEE7FEE7FEE7FEE7FEE7FEE7FEE7FEE786
:1062F000022005F0EFBC00BF2DE9F0470D46064631
:1063000005F016FD03281ED8012D04461DD00ED31E
:10631000022D18D11B4B00EB40041C44657895B14D
:10632000194B1B687BB12846BDE8F0471847174852
:1063300001F012F9134B164A04EB44010B44125DB1
:106340009D78AA42EBD0BDE8F0870E4F4FEA400897
:1063500008EB0003FA18FD5C53782BB9A0444744BE
:106360000B4BBA781A55DAE7DFF8289007484A4607
:106370004FF4004101F09AF80028EFD189F800604D
:10638000ECE700BF402E0020542E0020002E0020FD
:106390005C2E0020DC2D002010B5007805F0C8FC34
:1063A00003280BD8064B00EB40001844407828B176
:1063B000044B1B6813B1BDE81040184710BD00BF67
:1063C000402E0020542E0020B44B1B68DB0700D465
:1063D000704770B5B24DB34E2B7834786BB1B24B79
:1063E0001B7800202870002B4BD005F033FC0120D7
:1063F00005F030FC032005F02DFC172C40D8DFE819
:1064000014F0B600F400F400DC000801CA00130127
:10641000EE005000430050004300610018001800D7
:10642000180018001800660077008B009F005D00C0
:106430005D009E4801F090F8D4F11104054600F08B
:106440000081002840F0FD80012C13D0C82303FBFD
:1064500004F44FF4FA704FF400430021C3FB04012D
:106460004FF47A72002316F029FD2A4601468F4820
:1064700001F01CF8022005F0D9FB8B4B01221A70A9
:1064800070BD05F0FBFBB8E7012318462B7005F043
:1064900021FC00224FF480418548BDE8704001F0A6
:1064A00005B8012318462B7005F014FC002240F6B5
:1064B000CD417F48BDE8704000F0F8BF05F0F4FB27
:1064C000347070BD05F0F0FB0C23337070BD764B5B
:1064D0001B78002B00F0BF80002005F0BBFB0120E3
:1064E00005F0B8FB032005F0B5FB1223337070BD37
:1064F0006D4B1B78002B00F0B180002005F0AAFB4B
:10650000012005F0A7FB032005F0A4FB002005F007
:106510008DFB1323337070BD634B1B78002B00F091
:10652000AD80002005F096FB012005F093FB0320D1
:1065300005F090FB012005F079FB1423337070BD4A
:10654000594B1B78002B00F08380002005F082FB64
:10655000012005F07FFB032005F07CFB002005F007
:1065600065FB012005F062FB1523337070BD4E4BB7
:106570001B78002B00F08A80002005F06BFB0120C7
:1065800005F068FB032005F065FB494800F0E4FFD7
:106590000023337070BD002005F034FB002860D06C
:1065A000002005F057FB05233370002241F69A11B5
:1065B0003F48BDE8704000F079BF002005F022FBA5
:1065C00000285ED0002005F045FB46F266610323FB
:1065D000337000223648BDE8704000F067BF0020ED
:1065E00005F024FB0723337070BD002005F00AFB83
:1065F000D0B3002005F02EFB022C4EF2666118BFCE
:106600004FF40031347000222948BDE8704000F09A
:106610004DBF002005F0F6FAD8B3002005F01AFBB4
:106620004FF400310423D3E7002005F053FB062389
:106630003370002240F6CD411D48BDE8704000F0A7
:1066400035BF022005F006FB174B00221A7070BD03
:1066500005F014FB82E705F011FB46E705F00EFBA1
:1066600054E705F0E3FA9EE705F0E0FA43F2333130
:1066700041F69A13022C08BF1946C3E705F0FEFA4B
:1066800058E705F0D3FA41F69A11A0E705F0F6FABB
:106690007BE705F0CBFA43F23331C3E74C2E002001
:1066A000502E0020582E0020DD2D0020E02D00204F
:1066B000202E0020032801D90020704705F024BBBC
:1066C00038B5C54B1C6814F0010401D1204638BD13
:1066D000C24C2378054663B1C14B1B780020207063
:1066E00023B305F0B7FA012005F0B4FA032005F052
:1066F000B1FA172D00F26D81DFE815F0C300EC0050
:10670000EC001001D90023010201360128001B0012
:1067100028001B006A007100710071007100710097
:106720009A00AD0035004B006400640005F0A6FA45
:10673000DFE701231846237005F0CCFA00224FF45E
:106740008041A848BDE8384000F0B0BE012318469B
:10675000237005F0BFFA002240F6CD41A148BDE804
:10676000384000F0A3BE9E4B1B78002B00F0168132
:10677000002005F06FFA012005F06CFA032005F007
:1067800069FA012005F052FA974B14221A7000247E
:106790009CE7934B1B78002B00F00381002005F051
:1067A00059FA012005F056FA032005F053FA0020AB
:1067B00005F03CFA012005F039FA8B4B15221A70CE
:1067C000002483E705F070FA874B00241D707DE7F5
:1067D00005F06AFA844B0C221A70002476E783488D
:1067E00000F0BAFE0446D5F1110000F0C580002C7F
:1067F00040F0C280012814D0C82505FB00F54FF4F5
:1068000000434FF4FA700021C3FB05014FF47A7284
:10681000002316F053FB22460146744800F046FE62
:106820000446022005F002FA6D4B01221A704DE772
:106830006B4B1B78002B00F0AE80002005F00AFAAD
:10684000012005F007FA032005F004FA664B122236
:106850001A7000243AE7624B1B78002B00F09380FB
:10686000002005F0F7F9012005F0F4F9032005F008
:10687000F1F9002005F0DAF95B4B13221A700024BD
:1068800024E7574B1B78002B00F08E80002005F08A
:10689000E1F9012005F0DEF9032005F0DBF95148AC
:1068A00000F05AFE504B002204461A700EE70020FA
:1068B00005F0A8F9002869D0002005F0CBF94FF4C5
:1068C0000031494B474804241C700022BDE8384081
:1068D00000F0ECBD002005F095F900286CD00020F8
:1068E00005F0B8F9022D4EF2666118BF4FF4003181
:1068F0003D4B3C481D700022BDE8384000F0D6BD3D
:10690000002005F0E7F9384B364806241C700022B9
:1069100040F6CD41BDE8384000F0C8BD002005F08C
:1069200071F9002843D0002005F094F946F2666121
:106930002D4B2C4803241C700022BDE8384000F089
:10694000B5BD002005F05EF900283FD0002005F01D
:1069500081F9254B234805241C70002241F69A1129
:10696000BDE8384000F0A2BD002005F05FF91E4BE5
:1069700007221A700024A9E6022005F06BF9184BD3
:1069800000221A70A2E605F079F972E705F04EF9D7
:1069900043F2333195E705F071F957E705F06EF9E9
:1069A000EFE605F06BF902E705F068F977E705F027
:1069B0003DF941F69A11BBE705F038F943F233315E
:1069C00041F69A13022D08BF194691E705F02EF9FA
:1069D000BFE700247AE600BF4C2E0020502E002096
:1069E000DD2D0020202E0020582E0020E02D00203C
:1069F00038B5244B244A19608307106000F0010564
:106A000003D4CDB92C46204638BD204B20480E2457
:106A10000F2210211C701124DA7099715C7240F2FF
:106A20006662042100F00CFA0446B8B115B10120E9
:106A300005F096F9204638BD012005F091F9154A78
:106A40001548002100F020FD04460028F2D1134A29
:106A500013480121BDE8384000F016BD00F048FAA7
:106A600004460028E2D101460E4A0F4800F00CFD12
:106A70000446002DDED0012005F072F9002CD9D19A
:106A8000DDE700BF542E00204C2E0020402E0020B9
:106A9000D4D10300C9630200FCD10300F1620200FB
:106AA000F4D1030099630200F8D10300032811D840
:106AB000012A0BD0012919D00ED302290AD10E4B7D
:106AC00000EB4000034400205A70704701290AD0AF
:106AD0000022EFE707207047074B00EB400003441C
:106AE00000209A70704700F10E02D2B200EB400312
:106AF00001490020CA547047402E0020032819D8AD
:106B000008B505F027F91F2886BF0B4B00F01F00C2
:106B10004FF0A04303EB80030020D3F8002722F4BA
:106B20004032C3F80027D3F8002742F44032C3F8BC
:106B3000002708BD062070470003005010B50388E9
:106B4000102B07D0112B04D1254B18680138186081
:106B500030B110BD224C216881B10131216010BDDE
:106B600001220221FFF7A2FF38B3072825D01D4BD1
:106B70001B68002BEDD0BDE81040184701220846E5
:106B8000FFF794FF38B1072805D0164B1B6803B1F7
:106B900098472168E1E7072202210120FFF786FFDD
:106BA00008B10728F1D1042202210020FFF77EFF5F
:106BB0000028EED00728E8D1EBE7072202210120C8
:106BC000FFF774FF08B10728D1D1002108460A2237
:106BD000FFF76CFF0028BCD00728C8D110BD00BF4C
:106BE000642E0020602E002008B50020FFF786FFED
:106BF00010B1062800D008BD0120FFF77FFF002854
:106C0000F9D0062808BF002008BD00BF184B10B5FA
:106C1000186031B101200C46FFF74CFDF8B102239A
:106C20002370144B186808B1002010BD0122022106
:106C3000FFF73CFF08B10728F7D107220221012006
:106C4000FFF734FF08B10728EFD1002108460A22D8
:106C5000FFF72CFF0028E7D00728E5D010BDFFF78D
:106C600029FD08B92070DCE70B232370D9E700BFAA
:106C7000602E0020642E0020434B1978002900F07C
:106C800081802DE9F04F002487B001258E4603E076
:106C90000134E4B2744560D23C4B27B21E6816F84A
:106CA00037C0ACF1200205FA02F9394ACCF12003D1
:106CB000D2E9000125FA03F349EA030905FA0CF8C1
:106CC00000EA080201EA0903134306EBC70BDFD011
:106CD00021EA09032E4920EA08026046C1E900239F
:106CE00003F0EAFE16F837C0ACF1200205FA02F212
:106CF00001920199CCF12003C6B225FA03F3ACF15D
:106D00002002194306FA02F30393224B0191D3E9BF
:106D10000023CDE9042305FA0CF30093CCF1200104
:106D2000039B26FA01F10B43039306FA0CF302933B
:106D3000DDE90467DDE9002316401F4032463B468B
:106D4000DDE90267BB4208BFB24209D00E4B0134F5
:106D500093F800E0E4B274459ED307B0BDE8F08F2D
:106D60009BF80110DBF80430A1F10101B1FA81F1C7
:106D70004909091AB1FA81F14909002BE6D06046A8
:106D80009847E3E7704700BF682E0020A02E002040
:106D9000982E0020902E00202DE9F84F064624481A
:106DA00000F0DAFBD8B9234F0123A6F1200103FA42
:106DB00001FBC6F12002D7E9000123FA02F24BEAF7
:106DC000020B03FA06FA00EA0A0201EA0B03134374
:106DD00007D020EA0A0421EA0B05C7E90045BDE80F
:106DE000F88F304603F068FE134ED6E90089C8B12B
:106DF00048EA0A0349EA0B049846A146D7E900236A
:106E00004BEA03050D4B0A4819684AEA02044B464F
:106E10004246C6E90023C7E900450022BDE8F84F15
:106E200000F044BB28EA0A0829EA0B09E6E700BF9C
:106E3000702E0020982E0020902E00206C2E002016
:106E4000042A36D92DE9F04182B00E460546144693
:106E500003F0BCFC002836D01D491E4A1E4B0D60B5
:106E60001E481F491C60167000230022741EC0E9D2
:106E70000023C1E90023E4B2EEB105EBC404194FCD
:106E8000083D4FF00008032601E0AC4213D0A37880
:106E900020788DF806803A4601A98DF804608DF8B7
:106EA000053003F09DFC083C0028EED002B0BDE8A0
:106EB000F081072070470C4A0C48002100F0E4FAEA
:106EC00002B0BDE8F08103F035FC0028C4D0EDE746
:106ED000A02E0020682E00206C2E0020902E002076
:106EE000982E0020996D0200796C020000D20300F8
:106EF00070B5084D2B785BB1074E00243368012133
:106F000013F8340003F05CFD2B780134A342F5D86C
:106F1000002070BD682E0020A02E002000B585B096
:106F200000230390194601AA44F20100CDE9013380
:106F300000F004F805B05DF804FB00BF10B572B6B0
:106F400005F0A0FE05F05EFE0028FBD1104B114CB1
:106F50001149E41AE408240444F0010005F0E6F9BC
:106F60000E4B1B68DB0700D500BE44F002000C4945
:106F700005F0DCF9BFF34F8F0A490B4BCA6802F4E6
:106F8000E0621343CB60BFF34F8F00BFFDE700BF4C
:106F9000A0240400D024040004D20300F0ED00E09B
:106FA00010D2030000ED00E00400FA05F8B5204A15
:106FB000204B0024C2F84041C2F84441C2F8484185
:106FC000C2F84C41C2F80041C2F804411B6833B317
:106FD0001949D2F804550A68AD1A1A6825F07F4598
:106FE000AA4227460DD8197CDE69AD1A144419B19E
:106FF0001F74D3E9052090471EB133461A68AA4290
:10700000F1D90E490E4A0B7812789A4208D00D49F0
:107010000D4A41F823404FF48013C2F80031F8BD07
:10702000531CDBB2022B08BF00230B70EFE700BF3D
:1070300000100140C42F0020C02F0020BD2F0020D1
:10704000BC2F0020B42F002000E100E02DE9F04F1C
:107050008C4A8D4913780978DFF85082994285B0BF
:10706000D8F800A000F07B810133DBB2022B08BF0F
:10707000002386481370864A076852F823107B184D
:1070800023F07F4300240360534626462046A4464F
:10709000ABB11A688A4200F26581DC68C3F800C0AF
:1070A000891A1044DA6934B13D1825F07F45C3E9E7
:1070B0000154DE611E4613460124002BE9D1002C49
:1070C00040F07C8101230093724B734FDFF8E09115
:1070D00043F00103019355464FF0000B46B3D6E948
:1070E00001C13446F669694B6C481A68ACEB02037F
:1070F00023F07F43834248D80B44236000220121C0
:10710000C4E90122E2612174002D5DD02A689A420F
:107110004DD2284603E00A689A424FD20846C16918
:107120009B1A0029F7D12360E161C461002ED6D1FA
:1071300078783978884264D00B4603EB43034C1CC3
:10714000BA7807EBC303E1B28A421A79397004BFF7
:1071500000213970022A9C6844D0032A38D0012AC1
:10716000E8D1227C002AE5D1D3F80CC0C4F804C0D1
:107170001969A1605869E06099F800009B69A361F2
:107180000028B0D062609446ADE7A2EB0C0222F07A
:107190007F428A4202D28B1A2360AFE7002301228A
:1071A000C4E90033A360E36122746DB12A68C8F8B2
:1071B0000040D31A2B60E56125468FE7D21A0A609A
:1071C0002360E161C461B1E7C8F80040254685E766
:1071D000002DAFD000232B74ED69002DFBD1C8F832
:1071E0000050A5E74DB1AC422B4603D1E4E09442F8
:1071F0002FD01346DA69002AF9D10023237488427C
:107200009AD1BBF1000F01D1554553D0002D56D175
:10721000234E244A1F4C4FF480334FF40031012792
:10722000C2F880103C43C6F848334FF43C60C6F8BF
:1072300008337760A047154BB7604FF43C601D6082
:10724000A047194B1D70002389F8003005B0BDE838
:10725000F08FA34200F09180E0692168D861002896
:1072600000F086802A4603680B440360AA424FF070
:1072700000033978787823741CBF15464FF0010B52
:10728000BDE700BFBC2F0020BD2F0020C02F002075
:10729000B42F002020D20300A42E0020FEFF7F0088
:1072A0000010014000E100E0B12F0020C42F0020B9
:1072B000B02F0020009B002BC5D0002DA8D0434B41
:1072C000434A1C68D2F80465424FD5F800A03978CB
:1072D000331B23F07F43DD1CB9B93F493F4B4FF4CB
:1072E0008030C2F844034FF00108C2F804034FF4A1
:1072F0000030C1F8800143F001030860C2F800804B
:107300004FF43C60984787F80080AA452CBF04EBF7
:107310000A0363192E4923F07F43C1F84035D1F8A1
:107320000425921B9B1B22F07F4223F07F430332F4
:107330009A4288D9294BD1F80425C1F8402543F059
:1073400001034FF43C609847234B4FF40032C3F8DD
:107350000021002389F8003005B0BDE8F08F002639
:107360000096B1E674BB521A1A6001230093ABE693
:10737000002339787878237441E71946EA69C8F818
:10738000002092B9CDE90231114BDFF840C0012055
:107390009860019B89F80000CCF800204FF43C6015
:1073A0009847DDE90231D8F80020C8690968D8613A
:1073B00000287FF458AF59E72946DFE7C8F80030C6
:1073C0009A467FE6C8F800309A46CCE7C02F0020E6
:1073D00000100140B12F002000E100E020D20300A6
:1073E0002DE9F8431F4D204E204FDFF898804FF4D1
:1073F00080334FF400324FF001090024C6F880209A
:1074000047EA0907C5F848334FF43C60C5F808332C
:10741000C5F80490B847C5F808904FF43C60C8F828
:107420000040B847124A134B13491C601470134BA9
:10743000134A0C700B2114701C8099704FF4801249
:10744000C023C6F8802186F814333260C5F8084599
:1074500086F81133D5F80435C8F800302046BDE869
:10746000F88300BF0010014000E100E020D20300DB
:10747000B12F0020C42F0020BC2F0020A42E0020FC
:10748000BD2F0020C02F0020074B9B784BB132B19D
:1074900028B10368187C20B959745A6170470720D5
:1074A00070470820704700BFA42E00202DE9F04748
:1074B000264CA37882B0002B3CD000283AD0042977
:1074C0003CD94369002B35D0814602A899F8113088
:1074D0000026012B00F8016D0CBF8846B046174608
:1074E0008A4600F07DF86378A17822789DF807003D
:1074F0005D1CEDB2A94208BF3546AA4222D003EB7B
:10750000430304EBC3030121114AC3F80890197126
:10751000D2F804256570C3E9032AC3E9058700F0A2
:1075200085F80C4B4FF480123046C3F8002102B0AE
:10753000BDE8F087082002B0BDE8F087072002B060
:10754000BDE8F08700F072F80420F0E7A42E0020D8
:107550000010014000E100E0F0B51A4CA37883B0C0
:1075600043B338B343692BB3064602A8002500F89D
:10757000015D357400F034F86278A77821789DF8C1
:107580000700531CDBB29F4208BF2B46994214D020
:1075900002EB420204EBC202022196601171637099
:1075A00000F044F8084B4FF480122846C3F800213D
:1075B00003B0F0BD082003B0F0BD00F037F80420A0
:1075C000F9E700BFA42E002000E100E0014BD3F852
:1075D0000405704700100140401A20F07F407047BA
:1075E00070B4EFF3108472B60D4B9A68AAB90D49C6
:1075F0000D4E01259D60D1F8805035401D60C1F8C9
:107600008060D1F884505D604FF0FF33C1F8843062
:10761000027004B962B670BC704701230370F8E7CA
:10762000D86B002000E100E0FC06FFBD094B9A6822
:107630007AB170B910B4EFF3108272B606491C68C3
:107640000C605C684C60986002B962B65DF8044BEF
:1076500070477047D86B002000E100E0F0B4436849
:107660001BB1384AD468A34246D20023364F0B8060
:107670007A684FF0010C02F580544FF6FF7608321D
:1076800094420ED8BCF1020FA1F800C007F1140714
:1076900054D07A6802F58054083294424FF0020CBC
:1076A000F0D913680133EDD05388033302EB830321
:1076B0009C42E7D39588B5420AD0158845B19568B4
:1076C00003689D4211D05388033302EB8302D7E74E
:1076D0009C42D7D91A6801321A46D3D05D88033547
:1076E00003EB85039C42E5D2CCE7184B42601B8933
:1076F00003810120F0BC704712699342B5D813F0A2
:107700000305B2D1114A048912899442ADD10468AB
:107710009A689442A9D10C484268934203D902F571
:107720008052934207D38269934207D902F580526F
:10773000934203D201250D800120DBE70020F0BC3D
:10774000704700BFA82D002008300020EC2F00203B
:10775000F0B5334C334DB4F802C062684FEA8C0682
:1077600006EB0C0305EB830383B0596801F58050E9
:10777000002A52D05388033302EB8302904213D87D
:10778000664405EB8605EB68002B3DD0264B274869
:10779000196802229A80052500230122257003B072
:1077A000BDE8F04001F0FCBF13680133E8D0538816
:1077B000033302EB83038342E2D84FF6FF7E9788C0
:1077C000774514D0178897B162605388164D1748D3
:1077D000AE882968033300259BB200959B0001EB1E
:1077E00086010325257001F03DFF03B0F0BD9842EE
:1077F000C6D91A6801321A46C2D05F88033703EB34
:1078000087039842DBD2BBE7084804250122257094
:1078100003B0BDE8F04001F0C3BF01F10802ADE7DD
:10782000EC2F002008300020D0300020A82D0020B0
:107830002DE9F04FAC4E89B004464FF6FF7735681E
:10784000002D00F0D9802A78531E052B67D8DFE879
:1078500003F05931311D1D03002C40F0C380DFF8C7
:10786000B0C29CF80C209CF80030002A00F0528135
:10787000013B8CF80C40062B51D8DFE813F0E703EE
:10788000F8020302D8015000FB02C802002C40F0AD
:10789000A9802B79012B00F04A81C0F0DE800DF128
:1078A0000C08022B0394C8E90244C8F810403ED1EA
:1078B00020463DE0B5F81490AB7D002C00F0A3808D
:1078C000022BEA8840F2C4804FEA8904DFF838824C
:1078D00004EB090108EB8101D31C0A8913440B81D5
:1078E000EA884C4408EB84040DF10C086389033BDF
:1078F0009B1A00226381C8F808200392C8E903227A
:10790000012015E0002C40F097802B79032B00F22A
:10791000DF80DFE813F080013D01550160010023A5
:107920000DF10C08C8E90333C8F8083003930F20A1
:1079300004902B78023B042B0AD8DFE803F0472F92
:107940002303430004238DF80C30EB88ADF8183086
:10795000664C04F1100554F8043B404603B19847C7
:10796000A542F8D1624963480024346001F074F9FB
:107970000121614801F038FA00287FF460AF09B0B6
:10798000BDE8F08F03238DF80C30EB88ADF818308C
:107990002B89ADF81A30EB680593D9E702238DF8EF
:1079A0000C302B89ADF81830AB88ADF81A30EB6885
:1079B0000593AB7DA3F10603B3FA83F35B098DF85E
:1079C0001C30C5E705238DF80C30C1E701238DF885
:1079D0000C302B89ADF81830AB88ADF81A30EB6855
:1079E0000593B5E70DF10C080023C8F808300393A0
:1079F000C8E9033301209BE73D493E4801F0FEF80A
:107A0000054630601FE74FEA8904DFF8FC8004EB8D
:107A1000090108EB8101B1F808A0496801EB8A0A65
:107A2000062B00F2B682DFE813F0CC019301A5012A
:107A3000B80141016C0186010DF10C082F4A0023A9
:107A400053600393C8E90233C8F8103001206FE790
:107A5000DFF8B4804FEA890443E702232B71CDE9B4
:107A600004440DF10C08EB68039340460DF10A0144
:107A7000FFF7F4FD002800F0C1810499204A8B88AB
:107A8000EB800B882B811F4800940423BDF80A402B
:107A900001F0E8FD002840F0DE821B4B04EB84047B
:107AA00003EB84040123237469E701239A001A4439
:107AB00008EB8203002059680090082308F8220090
:107AC000124A104801F0CEFD00283FF458AF356847
:107AD0000A4A0DF10C08002353600393C8E90233EE
:107AE000C8F810300E2023E704300020D42F0020E7
:107AF000FC2F0020BC300020CC300020E42F0020E0
:107B000028D20300A82D0020083000202CD203002A
:107B1000EC2F0020072B00F28382DFE813F0FA013C
:107B2000810281029D01E60178017801C001BF4B0D
:107B30001B78002B00F05381DFF8F4E2BEF80490CC
:107B4000B9F1010F15D8DFF80C8309EB890208EBB6
:107B50008202043212F8043C002B00F0088209F182
:107B6000010399B201299946AEF8043002F11402DA
:107B7000F0D90DF10C0808220021AD4815F07FF96D
:107B80000020C8F808000390C8E903003568CFE674
:107B9000DFF8C08298F80030022B00F0688298F875
:107BA0001430022B81D0A14B0DF10C0800200122D2
:107BB0001A7003905860C8E90200C8F81000B7E6D0
:107BC0009C4A9D481168002302242B719480012255
:107BD00001F0E6FD78E7974C984A21689648DFF86F
:107BE00074824FF0000985F804900823CDF80090C6
:107BF00001F038FD924B25685B88A18803EB830375
:107C000008EB830208F82390536823600223556031
:107C10001181A38058E7874B8A4A19688648012357
:107C20002B7100230093082301F01CFD4CE7BCF8E6
:107C30000230DFF8208203EB830308EB8308D8F8D7
:107C40000C30002B00F0DC817A4B7B481968022253
:107C50009A8005228CF800200023012201F0A0FD6B
:107C600000283FF48CAE0DF10C08002341F61D52A4
:107C70003568C8F808300393C8E90333904208BF59
:107C8000184655E6DCF804206A4853888488016861
:107C9000694801EB84010333002400949BB2032460
:107CA0009B008CF8004001F0DDFCD9E7664BAA6927
:107CB00066491A604FF0000B1846C3F804B0FFF78E
:107CC000CDFC002800F0CA810223AB750423514685
:107CD000CDF800B0EA18584801F0C4FC00283FF481
:107CE0004EAEAB7DEA88022B4FF00E0026D84C44F6
:107CF00008EB8408B8F80A30033B9B1AA8F80A304E
:107D0000B1E7524B504AB3F800A051684A48504A74
:107D100000234FF0060C85F816C00093042301F0F1
:107D2000A1FC0028DDD10AEB8A0A08EB8A080123AE
:107D300088F8103023E6EA8841F61D5004EB09016B
:107D400008EB8101D31C0A8913440B81EA88CEE732
:107D5000032A0CBF052306230022AB750AF1040198
:107D60000092042305F10802334801F07BFC00284F
:107D7000B7D104E62B693048002B14BF032301233D
:107D80000022AB750AF108010092042305F10C02F0
:107D900001F068FC0028A4D1F1E5EB882A692648A7
:107DA0004FF0010C85F816C04FF0000C0AF10C01E1
:107DB0009B00CDF800C001F055FC00283FF4DFAD7A
:107DC0008FE702230022AB75042300925146EA1884
:107DD000194801F047FC00283FF4D1AD81E70DF1CF
:107DE0000C0808222146124815F049F80394C8E906
:107DF0000244C8F810403568022099E50A200023A3
:107E0000C8E90033C8E90233C8F8103090E5094BDF
:107E10000C4A1968084800230093CCF80430072363
:107E20008CF80030082301F01DFC19E7E42F002036
:107E3000E0300020D0300020A82D00202CD20300FC
:107E4000EC2F002034D20300C82F0020DC300020AB
:107E500028D2030008300020884ADCF804109388F8
:107E6000498803330B44022193808CF80010FFF7FC
:107E70006FFCF5E6BCF80220DFF810829300134493
:107E800008EB830806200023D8F804107C4A0093EE
:107E90008CF8000008237B4801F0E4FBE0E60123B6
:107EA0008CF800309CF80A304BB1DFF8E081D8F84C
:107EB0000C3000228CF80A20002B00F0AB809CF8DC
:107EC0000B30002B43D0DFF8C481D8F820300022DB
:107ED0008CF80B20002B3AD198F82430BBB3012347
:107EE000ACF80230FFF734FCBAE6BCF80220DFF849
:107EF0009C81624C9300991808EB810120684D68C1
:107F0000B4F804E0486002202560A1F808E0A080F1
:107F1000B5E7DFF87881BCF8081098F8142098F8D5
:107F20000030B2FA82F252090131B3FA83F35B09ED
:107F30008CF80B20ACF80810002201218CF80A30D4
:107F4000ACF802208CF80C208CF80010ACE70DF196
:107F50000C080020C8F808008CF80000ACF80200FB
:107F6000CCF804000390C8E903003568E0E4136826
:107F7000DEF8001003F5805C03F1080A002968D0E0
:107F80004B88033301EB83018C4505D8CEF80040C4
:107F9000E5E5EA880F20D1E60B680133F6D04B887F
:107FA000033301EB83039C45F0D38888B8421AD091
:107FB000B1F800B0BBF1000F15D0EB88CEF800107F
:107FC0008342DBD1002300932F4A2E48042301F083
:107FD00049FB00284DD109EB890908EB89080123E9
:107FE00088F81030CBE49C45D0D919680131194686
:107FF000CCD05888033003EB80039C45D5D2C5E72D
:1080000004228CF80020D8F804101E48012201F048
:10801000C7FB25E698F81020002A3FF450AF5FE731
:10802000013B062B3FF67BAC01A252F823F000BFC8
:108030004D8002006F7E0200857C02002F7C0200D2
:108040001F790200757E02000F7E02009CF80A3044
:108050002AE7514698E735680E20D0E60DF10C0866
:108060000390C8E90200C8F810000A2060E4002369
:108070001CE535680E200DF10C08C0E6D03000205C
:108080002CD20300A82D002028D2030008300020A5
:108090004068FFF7CDBB00BF38B5084B1A68042A0B
:1080A0000AD01D68064C02460121184644F82520D6
:1080B00000F08EFE002038BD0C2038BDD8300020E6
:1080C000D42F00202DE9F04FA34C8BB02278002351
:1080D000CDE90533CDE90733099372B19F4C04F123
:1080E000100554F8043B05A803B19847A542F8D100
:1080F000002528460BB0BDE8F08F201D02F0FF06DA
:1081000000F07EFE07460028F2D14FF010234FF01A
:1081100080525B6911695269DFF86482581C08BF9C
:1081200002FB01F3C8F810308D49A3F540534046D7
:108130000022C8F80C3001F067FA05460028D8D1B3
:108140001C238C2287498848DFF838A200F0E0FC25
:10815000D8F80C90DFF83082029609F54053484673
:108160004FF0030B2A469946002800F099800368D7
:108170007E498B4240F0948043687D498B4200F0F9
:10818000058101318B4240F08B80029B63B102EB91
:10819000820C08EB8C0102260132DAF8003008F874
:1081A0002C6092B24B600E818168CAF800004FF0DB
:1081B000020C0131AAF804C000F5805300F1080652
:1081C0002CD04189033106EB81008342C0F0A580A9
:1081D00060464FF6FF7E0192B6F804C0F4450FD01A
:1081E000B6F800C0BCF1000F0AD0624AD6F808C049
:1081F0001268944504D95F4AC2F800C071880331FF
:10820000084480B2AAF804007188033106EB8106A5
:10821000B34277D80228019A40F01F8104210F430E
:1082200099451846A0D1BBF1010F7CD9FFB2022FAE
:1082300079D0062F00F08180002F74D004A94A481D
:1082400000F0A0FC1C220446002114F018FE002CB3
:1082500000F001810123013F23700A2F09D8DFE8D4
:1082600007F019081908160816081C061C00022336
:10827000237104A93C4800F0B1FC01213E4800F004
:108280009BFD00287FF434AFFFF7D2FA31E70123DA
:108290002371EEE700232371EBE703232371E8E763
:1082A00000F58053014601E08B4214D00E68013680
:1082B00001F10401F8D002EB820108EB81060BF119
:1082C000FF3B01324FF0030C1FFA8BFB92B208F810
:1082D00021C07060A4E7DAF8001031B3274E02EB3A
:1082E000820108EB810C7280022602F1010E08F86F
:1082F00021601FFA8EF2CCF80400ACF8086047F059
:1083000001078DE73168013184D07188033106EBB4
:10831000810C6345BFF460AF019A4FF48061AAF805
:10832000041008217BE70B25E3E60221AAF80410DC
:108330000121CAF800000291E1E7084D0122002363
:10834000227005F11006636055F8043B05A803B1DF
:108350009847AE42F8D1CBE6E42F0020D42F00207E
:1083600054D4030030300020BC300020DEC0ADDE2D
:10837000FE011EF100300020CC300020EC2F002048
:10838000A82D0020D0300020083000209300039357
:10839000134408EB830C002108F823104FF002036C
:1083A000ACF80830CCF804008668013600F580533C
:1083B00000F1080140D0408900F1030E01EB8E0E60
:1083C00073452FD302260192E646B1F804C04FF65A
:1083D000FF72944537D0B1F800C0BCF1000F32D025
:1083E0001F4AD1F808C01268944505D91C4ABEF846
:1083F0000860C2F800C0488806440336B6B2AEF83A
:1084000008604888033001EB80018B4219D9086865
:10841000013016D0488800F1030C01EB8C0C634549
:10842000D3D2019A0399114408EB81014FF4806083
:108430004FF001060E740881013292B247F0020734
:10844000EEE6019AF8E74FF001028EF81020488816
:10845000BEF80860D0E708254BE60821DFE600BF3C
:108460000030002008B301B370B582B00C460DF1A6
:1084700006010546FFF7F2F8A0B1BDF806000C4B67
:108480006E6800EB800003EB800001210C3000F0EF
:108490009FFC26606B6801220C3300206360AA7287
:1084A00002B070BD0A2002B070BD0520704700BF49
:1084B00008300020E8B110B582B00DF10601044685
:1084C000FFF7CCF890B1BDF806300C4A03EB8303FC
:1084D00002EB8303DA6872B1A27A62B1DA68002132
:1084E000013A0846DA60A17202B010BD0A2002B05B
:1084F00010BD05207047062002B010BD08300020D6
:10850000484B1B78002B32D0002934D00A884FF614
:10851000FF739A4229D04B883BB34B689B072CD101
:108520002DE9F043B1F8088008F103039BB240F253
:10853000FD32934283B01CD83B4A17783FB9568925
:10854000148934441C44A4B2B4F5806F17D3147D4D
:108550003CB9D68B948B34441C44A4B2B4F5806FE0
:108560005DD3072003B0BDE8F083042070470220EC
:1085700070470920F6E70520704703207047BC4686
:108580004FEA8C09E14402EB890933440C46054665
:1085900001A92648A9F80A3000F0F4FA1C22064680
:1085A000002114F06CFC5EB302234FF00009B78287
:1085B000337086F816906368336101211C4800F01F
:1085C00007FCF060238833816388B38001A9A6F893
:1085D0000A90A6F80680154800F000FB45B1C5F8E2
:1085E0000490F268134B2A601B8985F80A902B814E
:1085F0000121114800F0E0FB044660B10020B1E722
:10860000B9F80A30C8F57F4808F1FD089844A9F880
:108610000A800820A6E7FFF70BF92046A2E701270A
:10862000BC46ADE7E42F002008300020BC3000201D
:1086300000300020EC2F0020CC300020002836D065
:10864000484B1B78002B30D0002930D00A884FF6D9
:10865000FF739A422FD04B886BB34B689B0728D18E
:108660002DE9F043B1F8089009F103039BB240F201
:10867000FD32934283B020D83B4A15783DB95789E3
:1086800014893C441C44A4B2B4F5806F17D3147D04
:108690003CB9D78B948B3C441C44A4B2B4F5806F96
:1086A0005BD3072003B0BDE8F083022070470520AC
:1086B000704703207047042070470920F2E7A8465E
:1086C000AC464FEA8C05654402EB85053B44064603
:1086D0000C4626486B8101A900F054FA1C2207467B
:1086E000002114F0CCFB57B300250323A7F8148016
:1086F0003B70BD7563683B6101211D4800F068FB5C
:10870000F86023883B816388BB800423A7F8069028
:10871000BB753368BB6101A97D81144800F05EFA26
:108720007560FA68134B32601B89B5723381012181
:10873000114800F041FB044658B12846B2E76B8966
:10874000C9F57F4909F1FD099944A5F80A90082067
:10875000A8E7FFF76DF82046A4E74FF00108C446EC
:10876000AFE700BFE42F002008300020BC3000201D
:1087700000300020EC2F0020CC300020184B1B785C
:1087800023B34FF6FF7398421ED070B582B001A993
:108790000446144800F0F6F91C220546002114F0A6
:1087A0006EFBADB105230126EC8001A92B702E7163
:1087B0000C4800F013FA31460B4800F0FDFA04466D
:1087C00048B1002002B070BD0420704702207047FD
:1087D000082002B070BDFFF72BF8204602B070BD34
:1087E000E42F0020BC300020CC300020194B1B7837
:1087F000EBB110B582B001A9174800F0C3F91C22F3
:108800000446002114F03BFB0CB30623237001A99E
:10881000114800F0E3F9114B1A7852B901211048C0
:1088200000F0CAFA044668B1002002B010BD022070
:108830007047012201210A481A7300F0BDFA04466C
:108840000028F1D1FEF7F4FF204602B010BD082049
:1088500002B010BDE42F0020BC300020EC2F00201F
:10886000CC3000202DE9F043344C2478002C60D02B
:108870003AB333B39F88012F5ED8314C07EB870C96
:10888000013704EB8C0CBFB24FF6FF7E4FF00008AF
:108890009CF8004074B91C68DCF8045005F580565B
:1088A000002C43D06588033504EB8504B4420BD318
:1088B000C3F80080022F9F800CF1140C3CD00227DB
:1088C000E6E70520BDE8F08325680135F0D065882E
:1088D000033504EB8505AE42EAD3B4F80490F145C4
:1088E00015D0B4F80090B9F1000F10D01C60A58825
:1088F0008542D1D125888D42CED1A16811601968F9
:10890000104B51601B8913810020BDE8F083AE42FB
:10891000CED92C6801342C46CAD0B5F8029009F1A2
:10892000030905EB8905AE42D7D2C1E705F108047A
:10893000BCE70220BDE8F0830A20C3E7E42F002053
:1089400008300020EC2F0020334B1B78002B5CD02C
:1089500051B34AB32DE9F0419588012D5AD82F4FD4
:1089600005EB850307EB830701353B78ADB24FF686
:10897000FF7C4FF0000E43B1022D958007F11407E4
:1089800048D03B780225002BF6D113687C6804F5AB
:108990008056002B3BD05C88033403EB8403B34246
:1089A00004D3C2F800E0E7E7052070471C680134F3
:1089B000F7D05C88033403EB8404A642F1D3B3F808
:1089C0000480E04512D0B3F80080B8F1000F0DD05C
:1089D00013601C888442D9D19B680B601268104BCD
:1089E0004A601B890B810020BDE8F081A642D8D9DE
:1089F000236801332346D4D0B4F8028008F1030879
:108A000004EB8804A642DAD2CBE70220704704F1D7
:108A10000803C4E70A20E7E7E42F0020083000201D
:108A2000EC2F0020334B1B78002B5CD051B34AB3A2
:108A30002DE9F0419588012D5AD82F4F05EB85037C
:108A400007EB830701353B78ADB24FF6FF7C4FF063
:108A5000000E43B1022D958007F1140748D03B78F2
:108A60000225002BF6D113687C6804F58056002B94
:108A70003BD05C88033403EB8403B34204D3C2F8D5
:108A800000E0E7E7052070471C680134F7D05C88F8
:108A9000033403EB8404A642F1D3B3F80480E04529
:108AA00012D0B3F80080B8F1000F0DD013609C888D
:108AB0008442D9D19B680B601268104B4A601B89B5
:108AC0000B810020BDE8F081A642D8D9236801338C
:108AD0002346D4D0B4F8028008F1030804EB8804DC
:108AE000A642DAD2CBE70220704704F10803C4E7BC
:108AF0000A20E7E7E42F002008300020EC2F0020B8
:108B000020B119B103680B60002070470520704741
:108B100099B110B4B2FBF3F403FB1424A4B244B92A
:108B2000C0E9001484608281C38120465DF8044B53
:108B3000704709205DF8044B70470E20704700BF56
:108B400082B050E8022FC188B2EB324F4FF00003E1
:108B500017BF92B241EA014142EA014104E0426892
:108B6000B2EB324F08BF012340E80212002AE8D1DD
:108B70008DF807309DF80730002B0CBF1120002026
:108B800002B0704730B482B050E8013F9DB2C48952
:108B900025448489A54228BF2D1B0489A54202BF14
:108BA000BFF32F8F002207E0C5EA030540E8015418
:108BB000002CE9D14FF001028DF803200193019BB5
:108BC0009DF803200B602AB10B880068184402B09E
:108BD00030BC704702F0FF031846F8E70A884B885C
:108BE0009A4201D00020704750E8012FC2EA0242A9
:108BF00040E80123002BF7D10120704730B482B048
:108C000050E8023F1FFAA3F5C488A54202BFBFF394
:108C10002F8F00220DE0C48925448489A54228BFF6
:108C20002D1BC3EA054540E80254002CE8D14FF063
:108C300001028DF803200193019B9DF803200B6036
:108C40002AB14B880068184402B030BC704702F06B
:108C5000FF031846F8E700BF0A884B889A4201D004
:108C60000020704750E8022FC2EA224240E8022367
:108C7000002BF7D10120704701F01F024B090121A1
:108C800000EB8300914000F07FB800BF10B50123D6
:108C900001F01F04490900EB810003FA04F100F020
:108CA00067F8E04000F0010010BD00BF01F01F02B6
:108CB00001234909934000EB8100D94300F070B8CB
:108CC0004B0901F01F0150F82300C84000F00100DB
:108CD000704700BF2DE9F84F01F1FF394FEA5913F2
:108CE00000F104090F46064609EB830904460025F6
:108CF0004FF0010823686FEA030B9BFAABFBBBFA4A
:108D00008BFBBBF1200F20D0AB445F450CD81CE09F
:108D10002368DB4393FAA3F3B3FA83F3202B05EB29
:108D2000030B12D05F4510D90BF01F0A4FEA5B10FE
:108D300008FA0AF106EB800000F01AF820FA0AF0AF
:108D4000C307E5D45846BDE8F88F04344C4505F117
:108D50002005CFD1BB465846BDE8F88F50E8002F1C
:108D60000B4640E8003C9CF0000FF7D110467047DE
:108D700050E8002F42EA010340E8003C9CF0000F5D
:108D8000F6D11046704700BF50E8003F43EA0102A9
:108D900040E8002C9CF0000FF6D11046704700BF51
:108DA00050E8003F03EA010240E8002C9CF0000F6D
:108DB000F6D11046704700BF50E8002F02EB0103C8
:108DC00040E8003C9CF0000FF6D11046704700BF11
:108DD00050E8003F03EB010240E8002C9CF0000F3C
:108DE000F6D11046704700BF50E8003FA3EB0102E8
:108DF00040E8002C9CF0000FF6D11046704700BFF1
:108E0000012350E800CF4CEA030240E8002191F032
:108E1000000FF6D160467047012350E8002F42EA68
:108E2000030C40E800C191F0000FF6D16046704796
:108E3000002350E800CF0CEA030240E8002191F043
:108E4000000FF6D160467047B8B130B4D0E90112D6
:108E5000521A0468D2B2531E2160DBB242B10168DB
:108E60000A685C1E551C0D601370E3B2FF2BF6D12F
:108E700003680020187130BC70470E20704700BF97
:108E8000F0B583B002AB002503F8015D0446184637
:108E9000FEF7A6FBD4E900311A688A4210D9511EA8
:108EA00019602168A3680F6812F8015C0A79268AA4
:108EB000E068DB1BDBB29A4206FB050538BF0B718D
:108EC0009DF80700FEF7B2FB284603B0F0BD00BFD7
:108ED00030B583B002AB002203F8012D05461846D9
:108EE0000C46FEF77DFB2A681368591C1160E9687F
:108EF0002A8A641AB4FBF2F41C709DF80700FEF78E
:108F000095FB03B030BD00BF826842B110B5044686
:108F100043690168006998470023A36010BD70474A
:108F20000EB400B582B0039929B102AA04AB42F88D
:108F3000043D00F08BF802B05DF804EB03B070471D
:108F40002DE9F84F88469045174605461E46DDE94F
:108F50000AB175D343464FF00109B3FBF7F39F42C3
:108F600009F10109F9D9B14538BFB14611F0010A3B
:108F7000AA6802D1BBF1000F43D1012402E0013EF7
:108F800007FB04F4012EFAD8B8FBF4F18F42F7D9AD
:108F90002D4E05E0B4FBF7F4A4B1B8FBF4F1AA68D8
:108FA000705C531CAB602B689854D5E901329A422F
:108FB00004FB1188EED32846FFF7A6FFB4FBF7F4B5
:108FC000002CEAD1BAF1000F15D0BBF1000F12D07E
:108FD000CB4510D92024AB682A68591CA960D45409
:108FE000D5E901329A420BF1FF3B06D2BBF1000FEB
:108FF00001D0CB45EFD1BDE8F88F2846FFF784FFBD
:10900000F4E78B0717D42024CB45B6D92B68511C25
:10901000A9609C54D5E901329A420BF1FF3B05D27D
:10902000BBF1000FA9D0CB45F0D1A6E72846FFF74A
:109030006BFFAA68F4E7002E0CBF30242024E3E77E
:109040004FF001098FE700BF48D20300002900F06C
:10905000F4812DE9F04F054685B092460C460B7819
:10906000DFF8A0B501E0237893B1013483B1252B5B
:1090700015D0AA682968501CA8608B54D5E9013224
:109080009A42F0D32846FFF73FFF2378002BECD11C
:109090002B7B002B40F0148105B0BDE8F08F2146FA
:1090A000002711F8012B2D2A00F0E180302A00F072
:1090B000E2802B2A00F0D2802A2A00F0E080A2F180
:1090C0003006F3B2092B03D9B8E1A3F1300601460B
:1090D000084606EB860310F8012BA2F13004092C98
:1090E00002EB4303F1D92E2A00F0D5800023013191
:1090F00001E011F8012B02F0FB0068280C46F8D0C3
:10910000253A532AAFD801A151F822F0CD9202009E
:10911000679002006790020067900200679002006B
:10912000679002006790020067900200679002005B
:10913000679002006790020067900200679002004B
:10914000679002006790020067900200679002003B
:10915000679002006790020067900200679002002B
:10916000679002006790020067900200679002001B
:10917000679002006790020067900200679002000B
:1091800067900200679002006790020067900200FB
:1091900067900200679002006790020067900200EB
:1091A00067900200679002006790020067900200DB
:1091B00067900200679002006790020067900200CB
:1091C00067900200679002006790020067900200BB
:1091D0006790020067900200E79202006790020029
:1091E000679002006790020067900200679002009B
:1091F000679002006790020067900200679002008B
:10920000679002000193020023930200679002001E
:1092100067900200679002006790020023930200AB
:10922000679002006790020067900200679002005A
:10923000679002006790020073930200679002003B
:1092400067900200E79302006790020021940200F9
:109250006790020067900200E792020047F004075F
:109260000C46214611F8012B2D2A7FF41FAF47F041
:1092700001070C46F5E747F002070C46F1E7DAF87C
:1092800000301A1DCAF8002062781E682E2A04F1E8
:1092900002007FF42BAF4A78A2F13003092B00F2D1
:1092A0005081002303EB830302EB430310F8012FEB
:1092B000A2F130010929A3F13003F3D9014616E7E1
:1092C000284605B0BDE8F04FFFF71EBEAB682A6820
:1092D000591CA9604FF02501D154D5E901329A42B9
:1092E000FFF4C1AECEE6DAF80020111DCAF8001076
:1092F00011682846CDE900671022FFF721FEB2E68B
:10930000DAF80020131DCAF80030AB68296812781B
:10931000581CA860CA54D5E901329A42FFF4A3AEA2
:10932000B0E6DAF80020111DCAF80010D2F800806B
:1093300088EAE872A2EBE872092A4FF0010107DD22
:10934000AF48A0FB0202D208092A01F10101F7DCB3
:10935000994238BF1946894607F00202002E71D1A2
:109360002AB1002B00F04781FA0700F18D8000261A
:109370008AE0DAF80020131DCAF80030AB682968CB
:109380001768581C3022A860CA54D5E901239342BB
:1093900080F028812A68581C7821A860D154D5E92A
:1093A0000123934280F019810F2F03D93A46120905
:1093B0000F2AFCD84FF0805603E036093FF453AE35
:1093C000AB682968B7FBF6F2581CA8601BF80200CE
:1093D000C854D5E90131994206FB1277EDD32846EE
:1093E000FFF792FDE9E7DAF800301A1DCAF800200D
:1093F000D3F80080FB077ED54746A7EB080917F88E
:10940000013B002B5DD0AA682968501CA8608B54D2
:10941000D5E901329A42F0D32846FFF775FDECE713
:10942000DAF80020111DCAF8001011682846CDE9AD
:1094300000670A22FFF784FD15E6704708460026FC
:10944000214650E6B8F1000F01DB780700D5013E58
:1094500002B1CBB1F90717D4002E88D0B14513D291
:1094600020220393A9682B68481CA8605A54D5E9A8
:109470000131994206F1FF365DD2002E00F0BD8029
:10948000B145EFD1039B4E46B8F1000FC0F2928078
:109490007A070AD5A9684A1CAA602A682B2050546A
:1094A000D5E90121914280F0928007F00302022A5F
:1094B0005FD0CDE9006741460A222846FFF740FD0C
:1094C000D1E54E457FF6CFAD202705E04E453FF470
:1094D000CAAD002E3FF4C7ADAB682A68591CA9601D
:1094E000D754D5E901329A4206F1FF36EED3284629
:1094F000FFF70AFDEAE7B8F1000F24D0404613F069
:10950000C6FC0746BE4220D9FEB14FF0200902E05A
:10951000BE421AD0CEB1AB682A68591CA96002F8C5
:109520000390D5E901329A4206F1FF36F0D328467E
:10953000FFF7EAFCECE728460292FFF7E5FC029A07
:109540009BE70146D2E54746DCE708F1FF3818F80B
:10955000013F002B3FF487ADAA682968501CA86022
:109560008B54D5E901329A42F1D32846FFF7CCFC5F
:10957000EDE7002B9DD1002E3BD0B14599D202934F
:1095800023464C469946AA682B68501C4FF0300180
:10959000A8609954D5E901329A4206F1FF3605D206
:1095A0002EB3B442EFD1029B4C4682E72846FFF728
:1095B000ABFCF5E7A9684A1CAA602A682D20505424
:1095C000D5E901219142C8F10008FFF46EAF2846A9
:1095D0000293FFF799FC029B67E72846FFF794FC8C
:1095E000AB68E1E62846FFF78FFCAB68D2E6029B4A
:1095F0004C4600265DE71E4646E7039BB7E600BFE4
:10960000CDCCCCCC48D2030010B582B038B1B9B1C2
:1096100001600B68114602B0BDE8104018470B48C6
:109620000B4C0C4B0C4A0D49001BC0080E240004C7
:1096300040F00100009403F029F90E2002B010BDA3
:109640000248034C034B064AEDE700BF0025040027
:10965000A024040058D203000CD3030014D3030049
:1096600040D303002DE9F04182B0002854D0002AF5
:1096700064D0D0F800C0BCF1000F69D01C46002BAC
:1096800033D04768D7F80480B3FBF8F708FB1737E7
:10969000002F3CD18F0723D112F0030F53D1C7689D
:1096A000B94211D23248334C334B344A3449001B4F
:1096B000C0081024000440F00100009403F0E6F814
:1096C000204602B0BDE8F0814E1E05693444AC422C
:1096D000E8D8DCF80C40A44602B0BDE8F041604791
:1096E0002348244C244B274AE0E72148214C224BB5
:1096F000254A2349001BC0080924000440F001004A
:10970000009403F0C3F8204602B0BDE8F081184889
:10971000184C194B1D4AECE71548164C164B1C4AC1
:109720001749001BC0080E24000440F001000094FB
:1097300003F0ACF8204602B0BDE8F0810C480D4CB7
:109740000D4B144AECE70A480A4C0B4B124AADE7A2
:10975000084C0748084B114A0949001BC008082457
:10976000000440F00100009403F090F82046A8E7C0
:1097700000250400A02404006CD2030010D40300D0
:1097800014D30300D4D3030050D30300A8D30300A1
:109790000CD30300A0D30300ECD3030094D3030045
:1097A000F0B583B0002843D0D0F800C0BCF1000F62
:1097B0004ED03AB34768D7F800E00EF1FF370F42BA
:1097C00031D1C768B94210D229482A4C2A4B2B4ABA
:1097D0002B49001BC0081024000440F00100009435
:1097E00003F054F8204603B0F0BD4D1E04690EFB93
:1097F0000255A542E8D8DCF81040A44603B0BDE805
:10980000F04060471B4C1A481B4B1E4A1C49001B6A
:10981000C0080924000440F00100009403F036F869
:10982000204603B0F0BD1248124C134B164ACFE746
:10983000104C0F48104B154A1149001BC0080E244C
:10984000000440F00100009403F020F82046CAE72D
:10985000084C0748084B0E4A0949001BC008082459
:10986000000440F00100009403F010F82046BAE72D
:1098700000250400A024040080D20300BCD2030011
:1098800014D3030050D3030094D203000CD303007D
:1098900094D3030029DF704728DF704708467047DC
:1098A00000207047024B187A003018BF0120704723
:1098B00084310020034B187A0122B0FA80F05A74E8
:1098C000400970478431002008B510461A4613F04D
:1098D000B2FA002008BD00BF08B5142200210448D8
:1098E00013F0CDFA0348FFF72BF9002008BD00BFA5
:1098F000843100207431002010B5094C094B4360BD
:109900002046FFF77DFA40B904F0BEFA1C2320740C
:109910008C2205490548FFF7FBF8002010BD00BF69
:109920008431002048D40300E83000207431002046
:1099300030B55E4C237A87B0002B3AD05C4B1B6865
:10994000022222721A79002A3ED0012A0CD1D3E9D0
:1099500003021044FFF7A0FF002849D0112803D1CB
:109960000123237207B030BD19688A68C2B1002292
:1099700068460092C0E902220325026101959A68B7
:1099800005921A79002A4BD0012A07D102228DF8BC
:109990000020DA68120302925B6904938B6898478F
:1099A00000234449444823726360FFF755F907B028
:1099B00030BD40494048FFF721F93D4A0346106059
:1099C0000028BDD16060F2E7D3E90525521BB2F54E
:1099D000805F28BF4FF48052D3E903109208012A18
:1099E00038BF012229442844FFF754FF0028B5D18D
:1099F000227C002ADBD1227A002AD8D0022A0AD17E
:109A0000E0601A79DAB1012A05D1D3E904210132E3
:109A10008A421A611FD0637C73B104F025FAC6E74D
:109A200001228DF800201A690292DA6803925B69BC
:109A300004938B689847B3E7FFF77AFFB7E7D3E95A
:109A40000512881AB0F5805F94BF121802F5805293
:109A500091429A61DFD10022227219688868A8B108
:109A600068460092C0E90122C0E903229A68059283
:109A70001A7982B1012A07D102228DF80020DA6812
:109A8000120302925B6904938B68984709490A485C
:109A9000FFF7E2F8BFE701228DF800201A69029271
:109AA000DA6803925B690493EEE700BF843100201B
:109AB0009C31002098310020743100202DE9F047BE
:109AC00082B082468946174801A990461F46FFF793
:109AD00059F810B3044600211C220D46124E13F013
:109AE000CEF90A9BC4F800A0A360C4E903896761AA
:109AF00001A925710B48FFF771F8301DFFF780F9B8
:109B000038B9747C34B9FFF713FF204602B0BDE8C2
:109B1000F087284602B0BDE8F087042002B0BDE817
:109B2000F08700BF74310020843100202DE9F0431C
:109B300083B081460D46164801A917469846FFF79F
:109B400021F808B304461C22002113F098F9114EA5
:109B5000C4F8009001232D0BC4E90285676101A9B7
:109B600023710B48FFF73AF8301DFFF749F938B970
:109B7000747C34B9FFF7DCFE204603B0BDE8F08307
:109B8000002003B0BDE8F083042003B0BDE8F083FB
:109B9000743100208431002000F0FD03012B00D03F
:109BA000704730B5604CA0F10100B0FA80F0237A24
:109BB0004009002287B020746274002B3AD05B4BBE
:109BC0001B68022222721A79002A3ED0012A0CD187
:109BD000D3E903021044FFF75FFE002849D01128A3
:109BE00003D10123237207B030BD19688A68C2B15E
:109BF000002268460092C0E9022203250261019515
:109C00009A6805921A79002A4BD0012A07D10222BC
:109C10008DF80020DA68120302925B6904938B6866
:109C2000984700234249434823726360FFF714F8C2
:109C300007B030BD3E493F48FEF7E0FF3B4A0346D0
:109C400010600028BDD16060F2E7D3E90525521B02
:109C5000B2F5805F28BF4FF48052D3E90310920819
:109C6000012A38BF012229442844FFF713FE0028A7
:109C7000B5D1227C002ADBD1227A002AD8D0022A50
:109C80000AD1E0601A79CAB1012A05D1D3E90421C9
:109C900001328A421A611DD0637C63B104F0E4F89A
:109CA000C6E701228DF800201A690292DA68039251
:109CB0005B690493B3E7FFF73BFEB9E7D3E905120D
:109CC000881AB0F5805F94BF121802F58052914255
:109CD0009A61E1D10022227219688868A8B16846A9
:109CE0000092C0E90122C0E903229A6805921A791C
:109CF00082B1012A07D102228DF80020DA6812030E
:109D000002925B6904938B68984709490948FEF7FA
:109D1000A3FFC1E701228DF800201A690292DA68D8
:109D200003925B690493EEE7843100209C310020AC
:109D30009831002074310020831E012B00D9704718
:109D400030B58E4C237A87B0002B31D0022B2BD12B
:109D500003286BD1E3680133082B79D9884B0022A3
:109D60001B68E26022720D2519688A68C2B1002260
:109D700068460092C0E90222026101959A68059244
:109D80001A79002A00F0B980012A07D102228DF841
:109D90000020DA68120302925B6904938B6898478B
:109DA00078497948FEF758FF637C1BB104F05CF8F2
:109DB00007B030BD237A002B5BD0714B1B680222A9
:109DC00022721A79002A5FD0012A0BD1D3E903024B
:109DD0001044FFF761FD002869D0112802D101234A
:109DE0002372E5E719688A68C2B1002268460092CA
:109DF000C0E902220325026101959A6805921A7949
:109E0000002A70D0012A07D102228DF80020DA68DA
:109E1000120302925B6904938B68984700235949A7
:109E2000594823726360FEF717FFC1E7544B0022C5
:109E30001B68E2601A796AB1012AB5D1D3E904211D
:109E400001328A421A6111D0637C002BAED1B4E793
:109E5000E360F9E7D3E90512881AB0F5805F94BF93
:109E6000121802F5805291429A61EDD100252572B7
:109E70007AE744494448FEF7C1FE414A0346106070
:109E800000289CD1606093E7D3E90525521BB2F509
:109E9000805FD3E9031028BF4FF480529208012A53
:109EA00038BF012229442844FFF7F4FC93E7227CC1
:109EB000002A7FF47DAF227A002A3FF479AF022A8C
:109EC0000AD1E0601A7912B3012A05D1D3E904213D
:109ED00001328A421A6126D0637C002B7FF466AF80
:109EE000FFF726FD64E701228DF800201A6902922F
:109EF000DA6803925B6904938EE701228DF80020F3
:109F00001A690292DA6803925B69049346E7D3E91F
:109F10000512881AB0F5805F94BF121802F58052BE
:109F200091429A61D8D10022227219688868A8B13A
:109F300068460092C0E90122C0E903229A680592AE
:109F40001A7982B1012A07D102228DF80020DA683D
:109F5000120302925B6904938B68984709490A4887
:109F6000FEF77AFEB8E701228DF800201A69029206
:109F7000DA6803925B690493EEE700BF8431002046
:109F80009C3100209831002074310020FEF75CBF26
:109F90002DE9F041058ACE1C043D2E440746B6FB50
:109FA000F5F6FEF76DFF78B3F6B24FF48073013E1D
:109FB0000446C5800760838027D08046002509E0DD
:109FC0006379AE4203F101036371C8F800000760D2
:109FD00080461AD03846FEF753FF01350028EFD1EE
:109FE0006679721E14D02346013082421B68FBD171
:109FF0001F684EB1002523682146013538461C46AE
:10A00000FEF766FFAE42F6D100242046BDE8F0819F
:10A010002768EFE704300121FEF7DABEF8B5012129
:10A0200004460430FEF7E0FEC0B200B1F8BD667928
:10A03000721E12D02346013082421B68FBD11F687A
:10A04000002EF3D0002523682146013538461C46F2
:10A05000FEF73EFFAE42F6D1F8BD2768F2E700BF3B
:10A060002DE9F843C788467907FB06F6043E02EB64
:10A07000030C0446664503F1040015468846B0FB10
:10A08000F7F238BFF51A07FB120012B1013A246843
:10A09000FCD13E1AAE4228BF2E469DB14FF00009BA
:10A0A0000430AD1B2044324608EB090112F0C3FE18
:10A0B000AF42B14424683E464FF0000028BF2E4610
:10A0C000002DEDD1BDE8F8832DE9F843C788467926
:10A0D000154607FB06F6043E05EB030C1A1D664504
:10A0E00004468846B2FBF7F038BFF51A07FB10218B
:10A0F00010B101382468FCD17E1AAE4228BF2E462A
:10A100009DB14FF0000904312144AD1B324608EBEC
:10A11000090012F090FEAF42B14424683E464FF071
:10A12000000128BF2E46002DEDD1BDE8F88300BF09
:10A1300041DF7047064A074B10B5002414701C60BD
:10A14000BFF35F8F0449054800F0C4F8204610BDF6
:10A15000A8310020AC31002074D40300A0310020CD
:10A1600000B583B002A8002300F8013DFDF738FADE
:10A17000F1EE103A23F09F03E1EE103ABFF35F8F48
:10A180000A4B4022C3F884219DF80700FDF74EFAE0
:10A1900003F07AFE28B920BF40BF20BF03B05DF8AE
:10A1A00004FBFFF7C5FF03B05DF804FB00E100E02E
:10A1B0000368826818685B68934234BF01330023E8
:10A1C000C01AB0FA80F04009704700BFF0B583B004
:10A1D00002AB002503F8015D044618460F46FDF763
:10A1E000FFF92368A2681E685868904238BF451C72
:10A1F000AE4213D05D6859688A420CD800225A607A
:10A20000E2686068531E072B46D8DFE803F0423E41
:10A2100045314545451901315960F1E7207C002859
:10A2200040D15D6859688A4244D901315960226839
:10A23000A16813688B4234BF013300231360DFE74A
:10A24000D7E9002300EBC500C0E9002322681368AA
:10A250005068834214D8C31A91689DF80700994248
:10A2600038BF9360FDF7E2F90024204603B0F0BD4B
:10A270003B6840F825302268136850688342EAD969
:10A28000A16801310144CB1AE6E73B8820F815307C
:10A29000DCE73B784355D9E7394605FB020012F06D
:10A2A000CAFDD3E79DF80700FDF7C0F90424204656
:10A2B00003B0F0BD5860BAE78268002393608268FB
:10A2C0001361826853618268D360826853608268D8
:10A2D0001360704701600B6843604A68934204BF93
:10A2E00000234360704700BF436843B10268916830
:10A2F0000B4443605268934204BF0023436070479D
:10A3000030B4184DA5F59472AB1ADB1003EBD37380
:10A310005B1002EBC30152F83330984228BF0C4661
:10A3200005D311E052F8333098420CD221468B1AF3
:10A33000DB1003EBD3735B108A4202EBC304F1D34F
:10A34000094830BC70470D46984204D904F1080210
:10A35000AA42D9D3F4E76068034B002808BF184627
:10A36000EFE700BFC8D503008CD403000A7B10B40C
:10A37000D1E90043002A0ABF2346002201220271CC
:10A3800003605DF8044B704710B4034600791C6805
:10A390008A6840B14868011B91420ED9A018186024
:10A3A0005DF8044B70470868211A91420BD80122CE
:10A3B00018601A715DF8044B7047002218601A711A
:10A3C0005DF8044B7047A01A18605DF8044B7047A5
:10A3D00010B570B101280BD10D4C2369A0703BB1B1
:10A3E000D3E900230120226198472369002BF7D18C
:10A3F00010BD074CA36801226270002BF8D0D3E98E
:10A4000000230020A2609847A368002BF7D1EFE754
:10A41000B031002070B910B5074CA36801226270FA
:10A420003BB1D3E900230020A2609847A368002B2A
:10A43000F7D110BD704700BFB031002030B5012802
:10A4400083B01CD015D3032811D100F021F902A844
:10A4500000231F4C00F8013DFDF7C2F8E368013B03
:10A46000E360E56865B39DF80700FDF7DFF803B02A
:10A4700030BD184B0122C3F8802003B030BD02A8C4
:10A480000023134C00F8013DFDF7AAF8237853B1DF
:10A49000E3689DF8070001330122E360A270FDF735
:10A4A000C5F803B030BD0C486360A3602361E3606E
:10A4B00000F0E0F803F0E8FC30B101232370E7E797
:10A4C00000F0FAF8A570CEE700F0E2F8F5E700BF7B
:10A4D000B031002000E100E0D1A3020000B585B05A
:10A4E00004AB002203F8012D8DF807001846FDF794
:10A4F00077F803F0C9FC30B19DF80F00FDF796F82E
:10A5000005B05DF804FB0DF107010848FFF75EFE9A
:10A510000648FFF74DFE0028EED000F00FFE9DF834
:10A520000F00FDF783F805B05DF804FB402404003C
:10A5300000B583B090B103280DD102A8002300F824
:10A54000013DFDF74DF80D480378012B0FD09DF824
:10A550000700FDF76BF803B05DF804FB074B1B78B1
:10A56000012BF8D100F0EAFD00F0F4FDF3E7044917
:10A57000013000F09DFD00F0CFFDE8E7143200202F
:10A58000DDA4020030B585B00478094A094B45685E
:10A590008DF80040047AC068039053F8213001958B
:10A5A0008DF8084052F821106846984705B030BD34
:10A5B000183200202032002030B585B0047845687C
:10A5C0008DF80040D0E90240064A074B039053F84B
:10A5D000213001958DF8084052F8211068469847BF
:10A5E00005B030BD18320020203200202DE9F043A4
:10A5F000DFF8748006784B7F08F806300D46074672
:10A6000096460FCD89B06C460FC495E80F003D7893
:10A61000DFF85890DFF858C018F8055049F826E0E0
:10A6200084E80F004CF82600049665B1BEF1000FD7
:10A630000B4A694607F1040008BF002201F008F93F
:10A6400009B0BDE8F083BEF1000F064A694607F184
:10A650000C0008BF002200F08BFE09B0BDE8F083BB
:10A6600085A50200B9A50200E46B0020203200207D
:10A6700018320020054A13792BB90121106053715B
:10A680001846117170478520704700BF283200209E
:10A69000084B1A68D20706D40122C02183F80013A0
:10A6A000C3F880211A604FF080430122C3F81825B7
:10A6B000704700BF00E100E0044B01221A604FF038
:10A6C0008042D2F81834DB03FBD470470C00004002
:10A6D00010B5154B1A6882B07AB10021134A19607F
:10A6E0001B68507900934FF080410123009CC1F812
:10A6F000083310B91168537188470D4B1A6882B13D
:10A7000000221A601B6801934FF080420221074B20
:10A710000198C2F808131B68012002B0BDE8104080
:10A72000184702B010BD00BF0001004028320020D1
:10A730000401004070B5214C94F86A5082B0002D9D
:10A7400038D14FF0FF332946062204F16400C4E9F2
:10A750000033C4E90233C4E90433C4E90633C4E96D
:10A760000833C4E90A33C4E90C33C4E90E33C4E93D
:10A770001033C4E91233C4E91433C4E91633236631
:10A7800012F07DFB0E4B0F4A0F4E1560C02183F86F
:10A7900006134021C3F880111960136801930199D1
:10A7A0004FF000430122284684F86A20C6F804339B
:10A7B00002B070BD082002B070BD00BF3032002072
:10A7C00000E100E07C61004000600040034B93F832
:10A7D0006A00003018BF0120704700BF30320020EF
:10A7E000F0B5744B1C1894F93050002D6ADA8E784D
:10A7F000C6F340069646002E5ED11D6A013500F074
:10A80000C48009240C2553F8247001375DD004F16D
:10A81000010C53F82C70013700F0C280A71CAF4226
:10A8200048D253F82720013200F0BC8004F1030C19
:10A83000AC453FD253F82C70013700F0B18004F1E1
:10A84000040CAC4536D253F82C70013700F0A880C8
:10A8500004F1050CAC452DD253F82C70013700F0F3
:10A860009F8004F1060CAC4524D253F82C700137BC
:10A8700000F0968004F1070CAC451BD253F82C7005
:10A88000013700F08D8004F1080CAC4512D253F86A
:10A890002C70013700F0848004F1090CAC4509D21A
:10A8A00053F82C7001377BD00A34AC4202D2DC6AF8
:10A8B000013409D00420F0BD1D68013574D0012495
:10A8C0000825A0E70820F0BD0B241F1865B243F847
:10A8D00024E087F83050002E5ED08A7854071AD4CE
:10A8E000D60741D41F284A7887BF334E00F01F0493
:10A8F00004464FF0A04604F5E074920046F8242088
:10A900002E4EC40800F0070C375D012202FA0CF24B
:10A910003A4332558A780C7812F0020209D1083D88
:10A920002B44104693F8602042EA841483F8604078
:10A93000F0BDAB0003F1804303F5C0430202D3F83E
:10A94000101521F44F3121F44071C3F8101524047F
:10A95000D3F8101504F4403402F47C5222430A4325
:10A96000C3F810250020F0BD1F2887BF124A00F051
:10A970001F0404464FF0A04202EB8402D2F80047C5
:10A9800024F00204C2F80047BAE7082684F83060D1
:10A99000C3F820E0354634461C4484F858009CE750
:10A9A000644692E73C4690E700251A6084F83050F0
:10A9B00093E700BF303200200003005094320020A3
:10A9C00070B43A4D2E1883B096F93030072B20DD45
:10A9D0002B4493F858309B09032B45D0012B14BF0F
:10A9E0004FF440314FF400311F284DD900F01F00C3
:10A9F0002F4B03EB8000D0F8002722F44032C0F840
:10AA00000027D0F800370B43C0F8003703B070BC04
:10AA10007047DAB2072AF9D8980000F1804000F5B3
:10AA2000C04003F14002D0F81045920092B244F0C9
:10AA3000010402F18042C0F8104502F5C042002036
:10AA40000190019C10600029E0D096F9302055F863
:10AA50002220002ADAD00122164902FA03F3C1F8B3
:10AA6000043303B070BC70471F2810D9104BD3F8C3
:10AA7000103500F01F00C34013F0010F0CBF4FF45E
:10AA800000314FF44031B3E74FF0A043B1E74FF04E
:10AA9000A0421346D2F81025C24012F0010F14BF95
:10AAA0004FF440314FF40031A3E700BF30320020B3
:10AAB00000030050006000401F288ABF054B4FF084
:10AAC000A04300F01F00D3F8103523FA00F000F087
:10AAD00001007047000300502DE9F047002388B0C3
:10AAE000CDE90233CE4A1668012E00F03B821E46A5
:10AAF000CC4B1A68012A00F02782CB4B1A68012A36
:10AB000000F01482C94B1A68012A00F00182C84B78
:10AB10001A68012A00F0EE81C64B1A68012A00F07B
:10AB2000DB81C54B1A68012A00F0C881C34B1A6843
:10AB3000012A00F0B581C24B1A68012A0FD1002208
:10AB40001A601B6801934FF0A042019BD2F81025B8
:10AB5000BC4B0292D3F81035039346F0004616F032
:10AB6000FF0F1AD0B84F00240125A30003F1804342
:10AB70002E4203F5C0434FEA45050BD0D3F810052C
:10AB800057F82420D3F81015C0F30520C1F3014174
:10AB900002B190470134082CE7D1002E02DB08B047
:10ABA000BDE8F087A84CA74F4FF0FF33CDE906333F
:10ABB00094F960300DF1100800225D1CC8F80420E3
:10ABC00004924FF0010600F0F4805FFA83FC2CF051
:10ABD000C00008AB4FEAD00903EB090E0CF00703E5
:10ABE0001EF8082C06FA03F312EA030521D02218F6
:10ABF0004FEA9C1192F9302054F82220002A00F0EC
:10AC00002981032900F028811F2800F2F9800546D8
:10AC10004FF0A04C0CEB850C1EF8185CDCF800E73C
:10AC20001D40CEF3014E40F0DF80BEF1030F00F077
:10AC3000BF8194F96130581C32D0DBB223F0C000E0
:10AC400008AA4FEAD00E02EB0E0C03F007011CF825
:10AC5000082C06FA01F912EA090F21D022189909E5
:10AC600092F9302054F82220002A00F0FB800329BA
:10AC700000F0FB801F2800F2E98003464FF0A04E51
:10AC80000EEB83031CF818ECD3F800C71EEA090F7B
:10AC9000CCF3014C40F0B880BCF1030F00F0AE8162
:10ACA00094F96230591C30D0DBB223F0C00008AAFE
:10ACB0004FEAD00E02EB0E0C03F007011CF8082C33
:10ACC00006FA01F912EA090F1FD02218990992F920
:10ACD000302054F82220002A00F0D880032900F008
:10ACE000D8801F287CD803464FF0A04E0EEB83037C
:10ACF0001CF818ECD3F800C71EEA090FCCF3014C7E
:10AD000064D1BCF1030F00F0658194F963305A1CE3
:10AD100034D0DBB223F0C00008AA4FEAD00E02EB19
:10AD20000E0C03F007021CF8081C06FA02F211428E
:10AD300024D004EB0009990999F9309054F829902E
:10AD4000B9F1000F00F09880032900F098801F28C7
:10AD50008BBFBE464FF0A04E03F01F0303460EEB21
:10AD600083031CF818ECD3F800C71EEA020FCCF3DB
:10AD7000014C20D1BCF1030F00F00181002D3FF404
:10AD80000EAF4FF0A0430299D3F81035D7F8102535
:10AD9000994203D1039991423FF401AFDDE90401E7
:10ADA000CDE9023294F960305D1CCDE906017FF4F3
:10ADB0000CAF00253DE7BCF1020FDFD1032900F005
:10ADC0003481B9F1000F40F0F180D7E7BCF1020FF8
:10ADD0009BD1032900F02681002A96D0904794E762
:10ADE00003F01F03BE4681E7BEF1020FE1D1032944
:10ADF00000F021810025002A3FF41BAF904718E79F
:10AE00000CF01F05BC4605E7BCF1020F7FF448AF0C
:10AE1000032900F00D81002A3FF442AF90473FE73D
:10AE20000061004004610040086100400C61004086
:10AE30001061004014610040186100401C61004036
:10AE40007C610040000300503032002003F01F03FB
:10AE5000BE4615E70329ACD118F809501D4308F880
:10AE60000950D1E603297FF41BAF18F80EA04AEA77
:10AE7000090A08F80EA0FDE603297FF47FAF18F851
:10AE80000EA04AEA020A08F80EA060E703297FF440
:10AE90003CAF18F80EA04AEA090A08F80EA020E70D
:10AEA000664AD2F8042317067FF545AE00221A60E1
:10AEB0001B680093009B46F080063CE65F4AD2F890
:10AEC000042352067FF532AE00221A601B680093FD
:10AED000009B46F0400629E6584AD2F80423910622
:10AEE0007FF51FAE00221A601B680093009B46F09E
:10AEF000200616E6514AD2F80423D0067FF50CAEA0
:10AF000000221A601B680093009B46F0100603E6BF
:10AF10004A4AD2F8042314077FF5F9AD00221A60DB
:10AF20001B680093009B46F00806F0E5434AD2F800
:10AF3000042355077FF5E6AD00221A601B680093D5
:10AF4000009B46F00406DDE53C4AD2F8042397074F
:10AF50007FF5D3AD00221A601B680093009B46F07A
:10AF60000206CAE53549D1F8041311F0010104D0F5
:10AF7000136013680093009BBAE50E46B8E50329F9
:10AF80007FF41FAF4FF4003CD3F8002722F4403287
:10AF9000C3F80027D3F80027013542EA0C02EDB2CE
:10AFA000C3F80027B9F1000F3FF4EBAEC847E5E660
:10AFB00003297FF420AF4FF40035DCF8003723F489
:10AFC0004033CCF80037DCF800372B43CCF800379F
:10AFD000012510E703297FF4FFAE4FF4003ED3F8BC
:10AFE00000C72CF4403CC3F800C7D3F800C70135B4
:10AFF0004EEA0C0CEDB2C3F800C7EDE603297FF46E
:10B000000AAF4FF4003ED3F800C72CF4403CC3F81D
:10B0100000C7D3F800C701354EEA0C0CEDB2C3F8F7
:10B0200000C7F8E64FF4403ED9E74FF4403CABE7A9
:10B030004FF4403EE7E74FF44035BEE70060004084
:10B04000014B1B68184700BF9C320020104B9842F0
:10B0500001D00020704730B583B002A8002300F86B
:10B06000013D0D46FCF7BCFA0A4B1C7934B19DF842
:10B070000700FCF7DBFA112003B030BD01229DF878
:10B0800007001D601A71FCF7D1FA2046F4E700BFF3
:10B09000002000409C320020034B984203D1034B18
:10B0A00000221A601A717047002000409C32002074
:10B0B00030B4154C23781BBB0378144ADB071160AE
:10B0C00016D41349134AD1F8003223F00103C1F812
:10B0D000003243785B014FF40051DBB282F80D334C
:10B0E0000125C2F8801111600020257030BC704726
:10B0F000074AD2F8043543F00103C2F80435E0E70B
:10B10000852030BC704700BFA8320020A432002048
:10B1100000D0004000E100E0064A074B002111602A
:10B1200082B01268019201990122C3F804231A60C7
:10B1300002B0704700D1004000D000400349044AEB
:10B140000123C1F808331360704700BF00D00040EE
:10B1500004D0004030B40849084D0948094A012389
:10B16000C1F808334FF4005400212B60C0F8804030
:10B17000117030BC704700BF00D0004004D00040C8
:10B1800000E100E0A8320020074B0849084A0020EF
:10B19000186082B01B680193019BD1F80805136801
:10B1A000C0B202B0184700BF00D1004000D000403C
:10B1B000A432002030B56C4AD2F8043399058BB024
:10B1C00066D5D2F82431002B62D00023C2F8243196
:10B1D000D2F8243103934FF40171644B0398C2F801
:10B1E000081393F8291009B9012151605E49022220
:10B1F0008DF81820D1F88024C1F880249869D96886
:10B2000009920022CDE90710C3E90622D3E9001410
:10B2100006A8A047544AD2F81C31BBB1534B186A58
:10B220005969884269D350480022C0F81C21D0F8DF
:10B230001C010190019849B198688DF81820089177
:10B240005A610790D3E9001206A89047464AD2F8FF
:10B250004431DBB10021454BC2F84411D2F844011E
:10B2600093F829100090009809B1012111609A69A2
:10B2700062B10022586AD9689A610122CDE90710AB
:10B280008DF8182006A8D3E9001290470BB030BD06
:10B29000354AD2F804335B07BCD5D2F80831002B0D
:10B2A000B8D0324B996900293CD00021C2F808116E
:10B2B000D2F8081104910499D868596AD2F818256F
:10B2C00042545A6A996901325A625A6A8A42A1D131
:10B2D000DA691968002A2ED0D8685D6A1C699A61FB
:10B2E000079000220120DC60DA615A628DF81800B4
:10B2F00008955B6806A898478CE793F8280000F04B
:10B30000FF0400288FD1C2F81C41D2F81C11029111
:10B3100002999C68186A196A205C01311962C2F8A6
:10B320001C0593E7C2F80811D2F8080105900598AA
:10B33000D2F81825C9E793F8292012B90A4A012042
:10B340005060094A4FF40170C2F80803586ADA687D
:10B3500008900024012007928DF818005A689C611B
:10B3600006A8904756E700BF00200040AC320020FE
:10B370002DE9F041DFF8E48107792C2606FB0786EA
:10B3800082B096F82A30002B40F0A1800D4604468A
:10B390006E4900681646FFF759FE002840F093807A
:10B3A0002B68591C19D01F2B4FF001028ABF684926
:10B3B0004FF0A04103F01F0302FA03F3C1F8083570
:10B3C0002B681F2B86BF03F01F03614A4FF0A0427A
:10B3D00003F5E073032142F823106B685A1C0BD06D
:10B3E0001F2B86BF03F01F03594A4FF0A04203F5FD
:10B3F000E073002142F823102368AA69C3F82425CA
:10B40000297D6B7D22680B43C2F86C35D5E90012AB
:10B410002368C3F81425C3F80C152B7D012B5AD0D3
:10B420002C2303FB07F308EB030256602A6948F854
:10B430000320002E34D022682B7F464D0021C2F815
:10B440001C11D2F81C2100922268009EC2F84411FF
:10B45000D2F84411226801910199C2F8045321687D
:10B46000090B4AB25B01002ADBB269DB02F16042E0
:10B4700002F5614282F800332268120B42F3C403E2
:10B4800023F0604323F0030303F1604303F56143BA
:10B4900002F01F02012101FA02F2C3F880211A60B2
:10B4A0002C23246803FB0783002204250121C4F810
:10B4B000005583F82A10C3E9062283F829205A612F
:10B4C00002B0BDE8F081112002B0BDE8F081082093
:10B4D00002B0BDE8F081AB68591C0BD01F2B86BFB2
:10B4E00003F01F031A4A4FF0A04203F5E073002156
:10B4F00042F82310EB685A1C1BD01F2B4FF001029F
:10B500008ABF13494FF0A04103F01F0302FA03F36F
:10B51000C1F80835EB681F2B88BF03F01F0303F544
:10B52000E0738CBF0A4A4FF0A042032142F8231077
:10B53000EB682268A968C2F80835C2F810156FE7F1
:10B54000054A01F00F010A44137695E7B5B10200F0
:10B550000003005080000200FCEC00E0AC32002050
:10B56000F8B53A4F047902682C2303FB04730021D9
:10B570005B68C2F8001583B10368354AC3F8082335
:10B580000368344D1B0B5AB25209203203F01F03DB
:10B59000012101FA03F345F8223003684FF0FF3C24
:10B5A000D3F80C65D3F81455D3F80825D3F8101543
:10B5B000C3F814C5C3F80CC503686645C3F808C5CD
:10B5C000C3F810C50CD01F2E86BF06F01F06224BF5
:10B5D0004FF0A04306F5E0764FF0020C43F826C08A
:10B5E0006E1C0BD01F2D86BF05F01F051A4B4FF0A8
:10B5F000A04305F5E075022643F825604D1C0BD0ED
:10B600001F2986BF01F01F01134B4FF0A04301F526
:10B61000E071022543F82150531C0BD01F2A86BF2E
:10B6200002F01F020C494FF0A04102F5E072022324
:10B6300041F822300068FFF72FFD2C2303FB047430
:10B64000002384F82A306360F8BD00BFAC320020CC
:10B650008402020000E100E000030050F0B5314E2A
:10B6600005792C2303FB056385B05C69002C53D15D
:10B670001C62996083F828405A610268C2F81C4134
:10B68000D2F81C11026802910121029F91600268A8
:10B69000D3F808C0C2F81C41D2F81C1101910199DD
:10B6A000D3F820E0196A5F681CF80EE001311962D6
:10B6B000C2F81CE517B1204605B0F0BD1A6A5C69F6
:10B6C0000168944203D819E093F828203ABBD1F8D6
:10B6D0001C21002AF8D0C1F81C71D1F81C2103925A
:10B6E000039AD3F820E01A6A1CF80EE001321A62BD
:10B6F000C1F81CE51A6AA242E9D30168D1F81C31ED
:10B70000002BFBD00123CB6000202C2303FB05651D
:10B7100000236B6105B0F0BD112005B0F0BD0F2016
:10B72000F3E700BFAC320020F0B5474BD3F824213B
:10B7300089B0002A54D00021C3F82411D3F8242161
:10B74000029202228DF81020029AD3F880043F4A18
:10B75000C3F880040790D3F83C05D3688DF818002F
:10B76000C2E9061105931168536804A89847364B3F
:10B77000D3F84421BAB10020344AC3F84401D3F8C5
:10B78000444191690194019C69B1D3F83C458DF81D
:10B790001840D368906101240593116853688DF8AF
:10B7A000104004A89847284BD3F82021B2B10021BB
:10B7B000264AC3F82011D3F8204150690094009C18
:10B7C00060B1D3F84C0593688DF818008DF810100F
:10B7D0005161059304A8D2E90013984709B0F0BD60
:10B7E000D3F810110029C2D0C3F81021D3F81011DA
:10B7F0001648039103998169D3F83C458C42B6D130
:10B80000C569C768D0E90016E4B295B1D3F800C2A3
:10B8100085612CF02005C261C3F800520369C36042
:10B8200001228DF8184005978DF8102004A8B04724
:10B830009DE7012385618DF8184005978DF810303C
:10B8400004A8B04793E700BF00200040D832002092
:10B850002DE9F04307797E4E4FEAC70808EB07034E
:10B8600006EB830385B093F82030002B40F0B080C6
:10B870000D460446774900689146FFF7E7FB00282C
:10B8800040F0A2802B68591C19D01F2B4FF00102E9
:10B890008ABF71494FF0A04103F01F0302FA03F37E
:10B8A000C1F808352B681F2B86BF03F01F036A4AB7
:10B8B0004FF0A04203F5E073032142F823106B68B8
:10B8C0005A1C0BD01F2B86BF03F01F03624A4FF098
:10B8D000A04203F5E073002142F823102368AA690F
:10B8E000C3F82425297D6A7D23680A43C3F86C25A3
:10B8F000D5E900312268C2F80C35C2F814152B7D49
:10B90000012B69D008EB07029200B318C3F804902A
:10B910002B69B350B9F1000F45D021682B7F4F4DF3
:10B920000022C1F81021D1F8101100912168DDF832
:10B9300000C0C1F82021D1F8201101912168DDF863
:10B9400004C0C1F82421D1F8241102912168DDF846
:10B9500008C0C1F84421D1F8441122680391039929
:10B96000C2F804532168090B4AB25B01002ADBB21A
:10B9700067DB02F1604202F5614282F8003322681F
:10B98000120B42F3C40323F0604323F0030303F1DB
:10B99000604303F5614302F01F02012101FA02F244
:10B9A000C3F880211A604744226806EB870600230B
:10B9B0000124082186F82040C2F80015C6E90633A4
:10B9C000736105B0BDE8F083112005B0BDE8F083D8
:10B9D000082005B0BDE8F083AB68591C0BD01F2BC5
:10B9E00086BF03F01F031C4A4FF0A04203F5E0732B
:10B9F000002142F82310EB685A1C1BD01F2B4FF07C
:10BA000001028ABF14494FF0A04103F01F0302FA5C
:10BA100003F3C1F80835EB681F2B88BF03F01F0341
:10BA200003F5E0738CBF0C4A4FF0A042032142F8AB
:10BA30002310EB682268A968C2F80835C2F810150F
:10BA400060E7074A01F00F010A44137697E700BF49
:10BA5000D832002029B70200000300501003020072
:10BA6000FCEC00E0F8B507793A4C0268FE00F319E7
:10BA700004EB830300215B68C2F8001583B10368FF
:10BA8000354AC3F808230368344D1B0B5AB25209D8
:10BA9000203203F01F03012101FA03F345F822309D
:10BAA00003684FF0FF3ED3F80CC5D3F81455D3F814
:10BAB0000825D3F81015C3F80CE5C3F814E503689E
:10BAC000F445C3F808E5C3F810E50DD0BCF11F0F2D
:10BAD00086BF0CF01F0C224B4FF0A0430CF5E07C0E
